:1000000000400020492C0000452C0000452C000039
:10001000452C0000452C0000452C0000000000008D
:10002000000000000000000000000000452C00005F
:10003000452C000000000000452C0000452C00006D
:1000400025150000A12B0000C12B0000E12B0000B2
:10005000012C0000452C000079110000491100001E
:10006000BD130000F9090000010A00008D22000004
:1000700095220000A5060000892800001920000034
:1000800031200000452C0000C10D0000D902000005
:10009000A5200000B5200000452C0000452C0000E4
:1000A0003D2000004D200000712000008120000054
:1000B000752A0000852A0000452C0000452C000010
:1000C000452C0000452C0000452C00006D07000069
:1000D000452C0000452C0000452C0000452C00005C
:1000E0009D220000F910000025200000B51000003E
:1000F000452C0000452C0000452C000000000000AD
:1001000000000000000000000000000000000000EF
:1001100000000000000000000000000000000000DF
:10012000452C0000452C0000452C0000452C00000B
:10013000452C0000452C0000452C0000452C0000FB
:10018000FFFFFFFFFFFFFFFFFFFFFFFFFFFFFFFF7F
:1001900003329CA77F000000FFFFFFFFFFFFFFFF70
:1001A00010B5054C237833B9044B13B10448AFF3B1
:1001B00000800123237010BD000C0420000000000B
:1001C00034A5010008B5034B1BB103490348AFF345
:1001D000008008BD00000000040C042034A50100CC
:1001E000154B002B08BF134B9D46A3F5803A002109
:1001F0008B460F461348144A121A0FF083FC0F4B1C
:10020000002B00D098470E4B002B00D098470020C1
:10021000002104000D000D48002802D00C4812F007
:1002200095FD0FF0EBF82000290002F081FD0FF0A2
:10023000D5F800BF000008000040002000000000CA
:1002400000000000000C0420C81504204D2D010002
:10025000B13C0100EFF3108172B60E4A1378ABB9CE
:1002600001200D4B10705A680C4842F001025A6090
:1002700098604FF400200A4A10606FF078421A62CA
:10028000DA625A63DA639A64DA641A6581F3108871
:10029000704700BF1C0C0420000001400010042027
:1002A00000E100E0012310B40A4C834004EBC000DD
:1002B000C0E90112D4F8DC2029B11343C4F8DC30C2
:1002C000002010BC704722EA0303C4F8DC30002091
:1002D00010BC70471C0C0420184B2DE9F047DFF8C8
:1002E0006090D3F84C809D6C1F6DD9F8DC3045EAE6
:1002F00007041C401AD0B4FA84F30126C3F11F038B
:1003000009EBC302D2F804A006FA03F324EA0304BB
:10031000BAF1000F06D01D42906814BF01210221DE
:100320000022D047B4FA84F3202BE7D1034B9D641D
:100330001F65C3F84C80BDE8F08700BF0000014096
:100340001C0C0420012910B5044612D002290DD03E
:100350000923037704F12C0000F08CFFA3685BB144
:10036000217FE0680022BDE810401847072303778B
:10037000F0E706230377EDE710BD00BF0146F0B5B7
:100380000268136813F00103FBD101243C258B6143
:100390000B774C7750682A4E20F0070050601560AC
:1003A0001662156B087C25F0030515631362C8B946
:1003B0008B6AABB1042553680C6A43F007035360A2
:1003C0004B6AD46008340C621C680833146153F81B
:1003D000044C54618C6A4B62083C8C629560F0BDA1
:1003E0000E20F0BD886A0028FAD04D681548AD7916
:1003F000DFF858E0AC40C0F81448C0F81C488462EC
:10040000446244638F6A2C013D1F4F6ADEF800008E
:100410002F440D6A0751204402F114044460D56052
:10042000896A094C8908013944EA01118160166220
:10043000116B184641F0030111631362F0BD00BF58
:1004400065756C6700000140014000CA545301000B
:10045000164B10B4DA68904204BF0022DA6042689A
:1004600092F90430002B0DDB012203F01F04104928
:100470005B09A240203341F82320BFF34F8FBFF325
:100480006F8F426892F90530002B0CDB012203F0DC
:100490001F0007495B098240203341F82320BFF346
:1004A0004F8FBFF36F8F002010BC704700000420F7
:1004B00000E100E02DE9F8430C460546DFF8D48062
:1004C000070108EB07060846F460002199460FF083
:1004D00019FB00212B4805EB4505ED00431958F8A1
:1004E000072050F805E0DD682748E162D3E901C73D
:1004F000C4E900261062B360D3E90403C2F804E043
:10050000C2F834C09763D56310645364136B23F04F
:10051000030313631162C9F80040FFF79BFE636891
:10052000224698791949FFF7BDFE20BB626892F90F
:100530000430002B11DA92F90530002B0ADB01227E
:1005400003F01F0012495B09824041F8232000207C
:10055000BDE8F8830020BDE8F883012203F01F0006
:100560000B495B09824041F82320626892F905300B
:10057000002BE4DAEEE72046FFF76AFF0820BDE82B
:10058000F88300BF1000042065756C674503000008
:1005900000E100E0000004202DE9F04F914283B01B
:1005A000054601932AD80C4616464FF0040A4FF030
:1005B0000609DFF8688000F12C074FEAC12B296893
:1005C0000A689307FCD1C1F818B00A6812F0030258
:1005D000FBD1C1F800A0486840F005004860C1F8B0
:1005E00020801046C1F808900A62394600F0E6FD06
:1005F00078B90134A6420BF5006BE0D2AB69019AE1
:100600001360AB69002B0CBF00200A2003B0BDE8CB
:10061000F08F112003B0BDE8F08F00BF65756C67E7
:100620002DE9F041D1E9007600258B68097B8362D2
:10063000437F04469046C0E9087601744574D3B1FF
:10064000002204F12C011046052500F0B7FDE8B9A1
:10065000237F5BB9A369C8F80030A369D3B9A36A43
:10066000002B18BF04252846BDE8F081257FEDB298
:100670002846BDE8F081FFF781FE0022054604F11F
:100680002C01104600F09AFD0028E1D011252846E3
:10069000BDE8F0810A252846BDE8F081C90A11604D
:1006A0000020704738B52E4B2E4ADC682368196845
:1006B00061616169196061690A40A261A26902BB56
:1006C0006269100737D5A26A002A38D11A68D107A3
:1006D000FCD400225968244821F0070159601862AF
:1006E000196BA56821F0030119631A62627715B1CD
:1006F0001146E068A84704F12C00BDE8384000F03E
:10070000B9BD00215A68184822F007025A601862E1
:100710001A6BA56822F003021A6319626177002D33
:10072000E9D0E068A2690121A84704F12C00BDE8E6
:10073000384000F09FBD62695207CAD438BD04201A
:10074000D4E90812D9601568083121621D61516829
:1007500008325961A16A62620839A162986038BDA5
:1007600000000420F0AF013865756C67002238B5D1
:100770001C4B1D49DC681D4823681D68656165695F
:100780001D6065692940A1611862196BA56821F097
:10079000030119631A62A262627745B1A36963B962
:1007A000237F03F0FF0243B91146E068A84704F134
:1007B0002C00BDE8384000F05DBDA3694BB9E0688E
:1007C000A2690121A84704F12C00BDE8384000F0DF
:1007D00051BD237F03F0FF02002BE8D1217FE068A9
:1007E000A847E4E700000420F0AF013865756C67A6
:1007F0002DE9F0410F460024104E82B0F56805EB5C
:10080000C00556F82420092F0CBF138D938D118E2F
:10081000D5F800809BB20B40ADF806301386B8F1D6
:10082000000F05D023B10DF1060221466868C047CC
:100830000134032CE5D102B0BDE8F081280004208A
:10084000084AD3685BB9D060C0E90033C0E902331D
:100850004FF40072044B1A604FF480621A6000205B
:10086000704700BF2800042000E100E04FF4007250
:10087000094BC3F88020BFF34F8FBFF36F8F4FF446
:100880008062C3F88020BFF34F8FBFF36F8F0023C8
:10089000024A1846D360704700E100E028000420B7
:1008A000094B53F82000EFF3108372B6092906D0E4
:1008B0000A2900D1828583F31088002070470285C1
:1008C00083F3108800207047280004200A4B092970
:1008D00053F820300AD00A2903D0002300201380C7
:1008E00070479B8D00209BB2138070471B8D0020AA
:1008F0009BB21380704700BF28000420024B53F8BE
:10090000203000209984704728000420034B53F8BE
:10091000203000209B8C0B80704700BF28000420F3
:100920000A4B53F82030EFF3108072B63AB99A8828
:1009300022EA0101998080F31088002070479A888C
:100940001143998080F3108800207047280004200C
:100950000A4B53F82030EFF3108072B63AB99A89F7
:1009600022EA0101998180F31088002070479A895A
:100970001143998180F310880020704728000420DB
:100980000A4B53F82030EFF3108072B63AB99A8EC2
:1009900022EA0101998680F31088002070479A8E20
:1009A0001143998680F310880020704728000420A6
:1009B000024B53F820300020198370472800042090
:1009C000024B53F820300020998370472800042000
:1009D00030B4EFF3108372B6064C0938E46880B285
:1009E00004EBC00544F830106A6083F310880020DF
:1009F00030BC70472800042009210020FFF7F8BE12
:100A00000A210120FFF7F4BE70B4456883B095F960
:100A100000300446002B0DDB012203F01F001F49AC
:100A20005B098240203341F82320BFF34F8FBFF38F
:100A30006F8F656822681A49938809889BB2ADF860
:100A40000430BDF804309BB29380B2F84C3003F010
:100A5000C003994209D093899BB2ADF80630B2F831
:100A60004C3003F0C0038B42F5D100200126AB6867
:100A700010801D885988A2F850609E881580DD88F6
:100A8000918419895B89A2F85060A2F85450A2F8A9
:100A90005810A38103B070BC704700BF00E100E0B4
:100AA000001404200023F0B4644C0268248880F809
:100AB0002A3080F82B30938803F488639C42FAD163
:100AC0000D688489CE7B8F886400436845618D7B87
:100AD00004F0FE04867207838E68C48193F90030A7
:100AE0008989002D4ED1002B05854562C6610184A0
:100AF0003DDA138843F0210313809388018B03F0C0
:100B00000303C3F1020389B29BB2A9B1002B00F029
:100B10008980456902E0002B00F0848015F8011BF4
:100B2000013B9181018B9BB2013989B20183018B19
:100B3000456189B20029EED1018C89B2A1B19BB186
:100B4000013B9BB2C56901332B4401E0AB420BD0A2
:100B500015F8011B9181018CC561013989B20184AD
:100B6000018C89B20029F1D11483F0BC70470122B5
:100B700003F01F0432495B09A24041F823200268B8
:100B8000C489B6E7002544F00104AB420185C48165
:100B90004662C561058408DB012203F01F04284971
:100BA0005B09A24041F823200268138843F0110337
:100BB0001380038DB3F5807F39D94FF4807313828E
:100BC000038DA3F580739BB20385038BC5899BB20C
:100BD00053B3138843F0200313809388018B03F0F1
:100BE0000303C3F1020489B2A4B2A9B1A4B1C3F151
:100BF0000104A4B2416901340C4401E0A1420BD0CC
:100C000011F8013B9381038B4161013B9BB203834C
:100C1000038B9BB2002BF1D125F00105ADB21583FA
:100C2000F0BC7047038C9FE71583F0BC7047002130
:100C3000038D013B9BB213820185C6E7001404209B
:100C400000E100E02DE9F041154C0646A08C9846E5
:100C500080B2B0F5217F0C4604D112490B6843F0F5
:100C600030030B600027104DC8F8007005EB061527
:100C700039462046EC600EF045FF0C4A6B6806EBE7
:100C8000460602EB860665602360E7622046AE609A
:100C9000FFF7BAFE3846C8F80040BDE8F08100BF53
:100CA00000200040340002404400042038000420AA
:100CB00010B50446FFF7A8FE002362681846D3600B
:100CC00010BD00BF38B50023037415460446FFF776
:100CD000E9FE90F82A2052B194F82B302B601BB11A
:100CE000082084F82A0038BD94F82A0038BD104640
:100CF00004F12C0100F062FA40B9054B21681A8812
:100D00008B8803F488639A42FAD1E5E70D2038BD59
:100D10000014042030B583B004460D46002001A91C
:100D200000F086F960B9114B9D4206D80199B1FBDC
:100D3000F5F149088BB2994205D0012003B030BDCE
:100D4000042003B030BD0A4B1B88002BF5D189B2BB
:100D50004B1E9BB213F47F40EFD1073989B243EAAF
:100D6000012322689BB29384E8E700BF801A060043
:100D700000140420044A21F07F0312889A4206BF1F
:100D8000818100200B2070470014042070B50024DE
:100D900084B086890291ADF80C2084811A46694698
:100DA00005460094ADF804408DF80E408DF80F40D4
:100DB000FFF788FFAE8108B995F82A0004B070BD2E
:100DC000744BF0B4D8680168837A8C88A4B204812B
:100DD0001BB10023C2890A8383726F4E04F004039F
:100DE00035889D4270D104F00802954247D104F045
:100DF000B003934204F4807503D1AA421FD1F0BC22
:100E0000704704F0100690F82B30B24218BF43F040
:100E1000010304F0800618BF80F82B30B24204F0C2
:100E2000200400F0A58043F00203A24280F82B309A
:100E300003D043F0040380F82B30AA421BD00C46A9
:100E40008B8803F488639A42FAD1436893F900309F
:100E5000002B0DDB012203F01F0450495B09A24067
:100E6000203341F82320BFF34F8FBFF36F8F046807
:100E70004B4B1B8823802C30F0BC00F0FBB9B1F841
:100E80004C30C3F38113002B00F082804FF4807547
:100E9000446A0A89013BD2B222700168446A8A8A94
:100EA000013492B29BB244624AB9078DB7F5807F94
:100EB0004FD90D82028DA2F5807292B20285002B6D
:100EC000E7D13288048992E7B1F84C30028BC3F342
:100ED0000113C3F1020392B29BB29AB1002B42D02C
:100EE000476901E0002B3ED017F8012B013B8A81B6
:100EF000028B9BB2013A92B20283028B476192B29B
:100F0000002AEFD1028B92B2DAB9028D92B2002A96
:100F10002BD1028C92B2A2B19BB1013B9BB2C769AB
:100F200001333B4401E0BB420BD017F8012B8A810F
:100F3000028CC761013A92B20284028C92B2002AFA
:100F4000F1D1038C9BB2002B7FF44DAF04238B8037
:100F500049E7078DBFB2002FB1D0078D013FBFB267
:100F60000F820285ABE70023CCE7C3890B83E8E758
:100F7000A2427FF45EAF002B7FF45FAF082395425F
:100F800080F82B307FF45BAFF0BC2C3000F072B9EE
:100F90002A462CE7440004200014042000E100E06D
:100FA00038000420F8B54CF61431022500241A4B01
:100FB0001A481A46D9601D610460D960196929432D
:100FC000196113699B05FCD5002446F61A061F25F6
:100FD0004CF61430124B134F196821F003011960BD
:100FE00011491C605F60DE605D610C608C604C6468
:100FF000D060136923F00403136140220B4B1A6085
:1010000080221A604FF400725A604FF400625A60F6
:1010100001F036FE2046F8BD00C104400C14042047
:1010200000C304400404100000C0044000E100E0DC
:1010300038B504460D4601F023FE7CB1012C0BD1DE
:10104000094B5B6803F03F03084A12680BB1B2FB1F
:10105000F3F22A60002038BD042038BD024B5B68E3
:10106000C3F30523F0E700BF00C304403C14042091
:10107000012810B519D014D3022810D16FF47F04C1
:101080000904EFF3108372B6094842682240114305
:10109000416083F3108801F0F3FD002010BD0420AF
:1010A00010BD09026FF47C54EBE76FF03F04E8E7F2
:1010B00000C3044038B50D4A0D4B14689B6903F01A
:1010C00006053CB113F0040207D00A4B0022186851
:1010D0000821A047064B9D6138BD9B07FAD5054BFB
:1010E00007211868A047024B9D6138BD0C140420ED
:1010F00000C304400814042038B5104A104B15688A
:101100009B6903F4CC4455B144B158040AD5042179
:101110000C4B00221868A847094B9C6138BD002C75
:10112000FAD138BD990405D49A0505D45B05F3D5E9
:101130000621EDE70321EBE70521E9E70C14042084
:1011400000C304400814042008B5084B5968CB07B5
:101150000BD5074B1B681BB1064A10680022984745
:10116000024A536843F00103536008BD00C00440C5
:101170000C1404200814042038B50D4D0D4A2B68BA
:10118000546873B1620704D500220B481146006809
:101190009847A30705D5084A2B681068012100224B
:1011A0009847044B04F006045A6814435C6038BD49
:1011B0000C14042000C0044008140420294B00290A
:1011C000F0B406BF194602260026032848D8DFE8F7
:1011D00000F0443C3F024FF0FF3C0626EFF3108343
:1011E00072B644F65904204D204FEC60AC6824F0F0
:1011F00003040443AC603869304300EA0C003861F2
:10120000EFF311841A485201008980B282F31188E9
:101210000A6852B9BFF34F8F30BF83F31088EFF3E2
:10122000108372B60A68002AF4D00A68013A0A608C
:1012300084F311880E4A0D4910810A6922F00202D6
:101240000A61BFF34F8F83F310880020F0BC704712
:1012500046F004064FF0FF3CC0E76FF0060CBDE718
:101260000620F3E70414042000C0044000ED00E071
:10127000002C0040034660B9EFF3108372B60749B3
:101280000A6922F002020A61BFF34F8F83F31088CC
:10129000034B1A68002001321A60704700ED00E02D
:1012A000041404202DE9F047006803891D06FCD4CE
:1012B000838D13F48053FBD1DFF8DC80DFF8DCE0B2
:1012C000DFF8DCC0324FA8F80030AEF80030ACF8E0
:1012D00000303B80002956D04FF001092D4ECC073D
:1012E0000DD5DCB256F8345006EBC40ABAF8044007
:1012F000B5F800A009FA04F444EA0A042C8049086D
:1013000003F10103EBD1B8F80040BEF80030BCF89F
:1013100000503988EAB1028814430480028D1343D7
:101320000385B0F850302B43A0F85030B0F854305B
:101330009BB2A0F85430B0F84C301943A0F84C10D0
:1013400083881A06FCD5838D5B04FCD50020BDE89C
:10135000F087028822EA04040480028D22EA030353
:101360000385B0F8503023EA0503A0F85030B0F8F8
:1013700054309BB2A0F85430B0F84C3023EA01014D
:10138000A0F84C10DCE70D460B460C46C2E700BF48
:1013900014140420540004201014042012140420F7
:1013A0001614042010B40468238913F08003FBD1C1
:1013B000C0E9011210BC1846704700BF564B2DE91A
:1013C000F0419C68236818889A8892B212F07E05D2
:1013D00043D0524980B201407CD1188D9A8D80B2A1
:1013E00092B212F00F0701D0C6065AD140F21D3654
:1013F000B3F85000B3F8482080B292B21640D4F847
:10140000048027D041F6FE7C10EA0C0F05D0800541
:1014100003D5900501D541F40061B3F85000DFF821
:1014200000C180B210EA0C0F19D1B8F1000F04D03E
:1014300019B10022A068C04723689A8815439D808F
:101440009A8D17439F85B3F848201643A3F8486048
:10145000BDE8F081B3F85020E7E72946BDE710F476
:10146000804F04D012F0100F18BF41F4802110F407
:10147000005F04D012F0080F18BF41F4003110F4DF
:10148000805F04D012F0040F18BF41F48031400592
:10149000CBD5D207C9D5B8F1000FCED041F4004169
:1014A000C7E7060703D5160748BF41F40071460792
:1014B00003D5560748BF41F48071860703D59607C8
:1014C00048BF41F08001C00790D5D60748BF41F022
:1014D00040018BE710F0040118BFC2F34001C704BC
:1014E00003D5160748BF41F0040107040ED4470492
:1014F00003D5960648BF41F0100180047FF56DAF1B
:10150000D7067FF56AAF41F0080166E7560648BF87
:1015100041F02001EBE700BFE400042004F8FFFFE6
:101520001CF4FFFF594B2DE9F0415C6923681888D2
:101530009A8892B212F07E0544D0554980B201409B
:1015400040F08380188D9A8D80B292B212F01F07FE
:1015500001D0C6065AD140F21D36B3F85000B3F898
:10156000482080B292B21640D4F8048027D041F6C9
:10157000FE7C10EA0C0F05D0800503D5900501D53F
:1015800041F40061B3F84C00DFF808C180B210EA02
:101590000C0F19D1B8F1000F04D019B10022A068C6
:1015A000C04723689A8815439D809A8D17439F856D
:1015B000B3F848201643A3F84860BDE8F081B3F8BB
:1015C0004C20E7E72946BDE710F4804F04D012F025
:1015D000100F18BF41F4802110F4005F04D012F006
:1015E000080F18BF41F4003110F4805F04D012F0EE
:1015F000040F18BF41F480314005CBD5D207C9D5BF
:10160000B8F1000FCED041F40041C7E7C60603D5BC
:10161000D60648BF41F48061060703D5160748BFC8
:1016200041F40071460703D5560748BF41F4807165
:10163000860703D5960748BF41F08001C0078AD5C9
:10164000D60748BF41F0400185E710F0040118BFFC
:10165000C2F34001C70403D5160748BF41F0040197
:1016600007040ED4470403D5960648BF41F0100185
:1016700080047FF567AFD7067FF564AF41F00801BE
:1016800060E7560648BF41F02001EBE7E400042084
:1016900004F8FFFF1CF4FFFF012903690ED00229A3
:1016A00008D043F04003036183685BB10169002205
:1016B000C068184743F010030361F5E743F00403E3
:1016C0000361F1E72830FFF7D5BD00BF01291046BF
:1016D00013690ED0022908D043F080031361836898
:1016E0005BB101690022C068184743F02003136111
:1016F000F5E743F008031361F1E72830FFF7BABDBF
:101700000368F0B51D88ADB21D8015F0900F1A8CDE
:1017100033D0EA0603D5026942F0010202612F06C6
:1017200003D5026942F002020261C26952B9012284
:10173000198A8E0706D5AC0704D41988890701D405
:10174000002A66D001249A8A416822F4185291F93D
:101750000C101204120C00299A8280F8224049DAF7
:101760001A88846892B21A80002C57D001692346E7
:10177000BDE8F0400022C068184792B202F00F06A0
:10178000C6F10806B6B21C46C2F30322AEB1838B83
:10179000B3B190F820C041699E1BB6B26144CCF150
:1017A000000E01E061445BB1013B11F80E709BB289
:1017B000B342278183834161F4D190F824304BBB3D
:1017C000A2B1C38B93B1816901E07BB10468A388A6
:1017D000013A0B70C38B816990F82140013B9BB2A9
:1017E000214492B2C3838161002AEED1C26982B9D9
:1017F00003689DE74B090C4A01F01F01203304FAEE
:1018000001F142F82310BFF34F8FBFF36F8F0368CE
:10181000A6E7F0BD838B002BE8D1D1E72830BDE8E7
:10182000F040FFF727BD00BF00E100E0F8B50C462F
:10183000054600271E46002120460EF063F9AA0047
:101840001349531901EB8301124B61601A4433F8B9
:10185000250053888A680C612260A76210829381F8
:10186000118A346041F001031382FEF7F3FC6368D0
:10187000224698780849FEF715FD38B96368224674
:1018800098790649FEF70EFD00B9F8BD0E20F8BDA7
:10189000FC00042058530100CD16000099160000EA
:1018A000426892F90C30002B12DB012210B40A4975
:1018B00003F01F045B09A240203341F82320BFF34B
:1018C0004F8FBFF36F8F42680020106110BC7047CC
:1018D00000201061704700BF00E100E00268138A39
:1018E00031B923F400631B041B0C138200207047E2
:1018F00043F4006313820020704700BF10B4EFF37D
:10190000108472B6026889B91183138A23F0020326
:101910001B041B0C1382138A43F4207343F001034E
:10192000138284F31088002010BC7047138A43F0A0
:101930000203138284F31088002010BC704700BF9C
:1019400030B583B005460C46002001A9FFF770FBB7
:1019500090B90199B1EB440F0BD3B1FBF4F14908F5
:10196000013989B231F03F0309D12B68998103B065
:1019700030BD0C2003B030BD032003B030BD0720C4
:1019800003B030BD30B5036883B09B890D4600209D
:1019900001A99CB2FFF74CFB38B9019A631CB2FB5A
:1019A000F3F35B082B6003B030BD002301202B60F4
:1019B00003B030BD0268138A31B923F008031B0459
:1019C0001B0C13820020704743F008031382002091
:1019D000704700BF80F82610002070470268138A05
:1019E00031B923F004031B041B0C13820020704741
:1019F00043F0040313820020704700BF2DE9F0413B
:101A0000D1E9002300260C894D89C0E90523848390
:101A1000C5830A7B036880F820204A7B90F826E083
:101A200080F821208F7B91F80FC080F822601A8AFD
:101A300082B022F441521204120C80F8237080F814
:101A400024C006611A82002F59D09A8A002D40F0D6
:101A5000D48042F400529A821A8892B2ADF80420DF
:101A6000BDF8042092B21A801A8A42F002021A8249
:101A7000A3F830E01A8A42F440521A821A8A22F4F9
:101A800040521204120C1A829A8B22F0070212049E
:101A9000120C9A83002C40F0FD80012645684A898B
:101AA000002A5BD0AC88B5F806C067B2002F80F280
:101AB000238101249C4F04FA0CF4C7F81C48BC6233
:101AC0007C627C63D40748BF01324F6848BF92B242
:101AD000964C4FEA5208023A24681744944A4FEA57
:101AE0000C1C08F1FF3803F1040E44F80CE042EA44
:101AF00008126444676046F00406A2602EE0002CE1
:101B00000CBF4FF400524FF408529C8A002D6FD145
:101B100022439A821A8A42F040021A821A8892B2AA
:101B2000ADF80420BDF8042092B21A801A8A42F05F
:101B300002021A82A3F830E000261A8A456842F4AD
:101B400040521A821A8A22F440521204120C1A824B
:101B50009A8B22F007021204120C9A83002290F84A
:101B60002440B0F81EC09A84828B002C79D09F8CC0
:101B7000541E27F0F0073F043F0C9F849F8C47EAD8
:101B8000840444F00104A4B29C841C8A44F40064DC
:101B90001C82A3F818C090F82340002C4AD1416958
:101BA00071B1A2F10807BFB2541E4AB10E78A2B2B9
:101BB0001E8190F82040BA42214482834161F3D1D2
:101BC0001A8A520658BF9B8895F90C30002B07DB08
:101BD000012203F01F0457495B09A24041F823206A
:101BE00090F82530002B49D1002002B0BDE8F081EB
:101BF00044F4806422439A8290E722F40052120453
:101C0000120C9A821A8892B2ADF80420BDF8042012
:101C100092B21A801A8A42F002021A82A3F830E0C5
:101C2000BCF1000F3FF426AF012D7FF423AF80F805
:101C3000236081E79A8B098916439E830029BFD0D0
:101C4000642201E0002ABBD0198C013A89B2ADF8B8
:101C50000610BDF8061092B201F00F010829F1D06C
:101C6000AEE7BCF1000F40D11C8A44F480541C82C2
:101C7000944538BF9446A3F818C08CE7002200F1C1
:101C800028011046FFF79AFA0028ADD00D2002B0C7
:101C9000BDE8F08145682E88B5F802C072B2002A0E
:101CA00036DA0122204E02FA0CF2C6F81428B2628B
:101CB00072627263E60744BF0134A4B21B4A0F6824
:101CC000A4F102086408126804F1FF3E1A4C4FEABE
:101CD0000C1C474442F80C7044EA0E14624403F1B1
:101CE0000807576003269460D9E6002AC0D11C8AF1
:101CF00044F400541C82BBE701230E4D04F01F0482
:101D00007F0903FA04F445F82740D0E90035D0E60E
:101D10000123084D06F01F06520903FA06F645F89E
:101D20002260D0E90035BCE70000014054530100B7
:101D30000100004D00E100E0010000C5012310B5E5
:101D400080F825300446FFF759FE002384F825303B
:101D500018B92369002B18BF0F2010BD2DE9F043DF
:101D600000260368D1F800C01A8A4F6842F4405236
:101D70001A821C8A0A8924F440542404240C1C82EC
:101D80009C8B4D8924F007042404240C9C83C0E917
:101D900005C780F822608283C5830C7B83B080F8FE
:101DA00020404C7B80F821401C8A8F7B24F46154B6
:101DB00091F80FC02404240C80F8237080F824C00C
:101DC00006611C821AB91C8A44F400541C82002D3E
:101DD00031D11C8A44F480541C82002F00F0A08072
:101DE0001A83002A31D1998A466821F400510904E6
:101DF000090C9982998B42F001020A439A831A8A4C
:101E0000520603D49B889BB2ADF8063096F90C308D
:101E1000002B07DB012203F01F0472495B09A2407B
:101E200041F8232090F82530002B40F0AC800020B2
:101E300003B0BDE8F083AA42144638BF2C461C8389
:101E4000002F72D0002A00F0C78046683588B6F8A7
:101E500002906CB2002C80F2AF800124624D04FA33
:101E600009F4C5F81448AC626C626C63D50748BFCE
:101E70000132DFF880C10D6848BF92B2DCF8008003
:101E80004FEA520E594F023A2A444FEA09144D893B
:101E90000EF1FF3E48F8042047EA0E1703F108024E
:101EA00008EB040ECEF80420CEF808700622002DB0
:101EB00000F08E80B788B6F806807CB2002C6FDA0E
:101EC0000124494F04FA08F4C7F81C48BC627C623C
:101ED0007C63EC0744BF0135ADB24F68DCF800C04D
:101EE0004FEA550E424C4FEA08110EF1FF3E023DFB
:101EF0003D4444EA0E141F1D0CEB010E4CF801701A
:101F000090F82370CEF80450CEF80840998A21F456
:101F100000510904090C9982002F7FF46BAF0BE08C
:101F2000198A41F0400119821A839A8A466822F47C
:101F300000521204120C9A82198A828B21F40061D9
:101F40000904C48B090C002A19820CBF00214FF42C
:101F50000071ACB99C8AA2F1080521439982ADB207
:101F6000541E002A3FF44BAF4169A2B20C78AA423A
:101F70001C8190F82040828321444161F0D13EE7EA
:101F800041F48061E6E7002200F128011046FFF7E6
:101F900015F900283FF44BAF092003B0BDE8F083EA
:101FA0000123104E07F01F07640903FA07F746F8EC
:101FB0002470D0E9003683E701230A4E05F01F059F
:101FC000640903FA05F546F82450D0E9003644E7E1
:101FD00090F82370022299E704224668DFF814C0C3
:101FE00068E700BF00E100E000000140010000C51B
:101FF0000100004D54530100012310B580F8253035
:102000000446FFF7ABFE002384F8253018B9236996
:10201000002B18BF0F2010BD014B1869FFF770BBD4
:10202000FC000420014B586AFFF76ABBFC00042047
:10203000014B986BFFF764BBFC0004200022024BAD
:102040001B699A83704700BFFC0004200021074BE6
:102050001B691A68D983938B23F007031B041B0C9D
:102060009383938A43F4005393827047FC000420C7
:102070000022024B5B6A9A83704700BFFC00042079
:102080000021074B5B6A1A68D983938B23F00703FF
:102090001B041B0C9383938A43F400539382704771
:1020A000FC0004200022024B9B6B9A83704700BF08
:1020B000FC0004200021074B9B6B1A68D983938B8B
:1020C00023F007031B041B0C9383938A43F40053F0
:1020D00093827047FC000420F8B50F4B0F4F53F864
:1020E000206057F82030B58B9BB1ADB2EA070446AB
:1020F00005D50B49002251F8200001219847AB0774
:1021000007D5074A57F8243052F82400022100224C
:1021100098470323B381F8BD8853010018140420A5
:102120002414042070B41E4D1E4C45F820101E4986
:1021300044F820200A561BB3002A07DB012302F0D3
:102140001F041A495209A34041F82230184B194E76
:10215000194D1A4C1A491B4A53F8203036F81060B2
:1021600035F8105034F8104031F8101032F81020C3
:102170001E8100201D809C82198470BC9A84704747
:10218000002AE3DB012302F01F0408495209A3409F
:10219000203241F82230BFF34F8FBFF36F8FD5E766
:1021A00018140420241404208453010000E100E0EA
:1021B00088530100645301006C5301006C5301000B
:1021C000745301007C530100184A30B452F82000C7
:1021D0008C88CA884FF47A730480828200E013B33B
:1021E000828B013B12F0400F9BB2F8D10389CD786E
:1021F0008A784C7803F4C04342EA451213430CB189
:1022000043F008030A780AB143F004030A7A0AB1DA
:1022100043F080034A7A1AB930BC0381002070472A
:1022200043F40043F8E7062030BC704788530100B0
:10223000104A10B44FF47A7352F8204000E0B3B162
:10224000A28B013B12F040029BB2F8D1238923F00C
:1022500010031B041B0C238131B12389104643F06A
:102260001003238110BC7047084610BC704706203D
:1022700010BC704788530100034B53F820300020F6
:102280009B880B80704700BF885301000020FFF738
:1022900023BF00BF0120FFF71FBF00BF0220FFF7D1
:1022A0001BBF00BF2DE9F0410C460546002011463A
:1022B000E36AAA6818731B690129EE68E3629388D0
:1022C0003AD023F0200395F82D001B041B0C9380BB
:1022D000B0B11EB194F83430022B1DD0236B1B69B2
:1022E0001B68002B3DD004F13C00FEF7C3FFE16A00
:1022F0000B7B002B3ED0A36B2846BDE8F04118476E
:10230000938823F001031B041B0C9380002EE5D05F
:1023100094F83430022BE1D10027236BAA691869A5
:10232000D3F800C0AF611F6003682063FBB1286968
:10233000D2B10421B047D6E723F012031B041B0CD3
:1023400093801EB194F83430022BE5D0938A5B065B
:10235000FCD5138F9BB2002BC0D0938A5B06F5D5BA
:10236000F7E784F83430BEE76246B047BBE784F84D
:102370003430DCE7BDE8F08138B50B46416A012B0B
:10238000CA6A044610691CD0022B0CBF4FF480654A
:102390004FF4805503680BB1437B43B9A3692046D2
:1023A0002B43A3610022BDE83840FFF77BBF00222A
:1023B000A3692B43A36102732046FFF773FF616A91
:1023C000ECE74FF48075E5E738B50B46016A012B61
:1023D000CA6A044612691DD0022B0CBF4FF4006577
:1023E0004FF4005513680BB1537B43B9A3692046E2
:1023F0002B43A3610122BDE83840FFF753BF002003
:10240000A3692B43A361107301222046FFF74AFF03
:10241000216AEBE74FF40075E4E700BF436A70B54B
:10242000DC6A054626684EB3237BBBB1D4E90103C1
:102430004A1ED2B269B90EE0A968013A0988D2B23F
:10244000C9B2F154A368FF2A03F10103A3606068D5
:1024500001D08342F0D3834214D070BDC368002BF7
:10246000FBD000220221286998472368002BF4D171
:10247000237B002BF1D1AB681B8870BDC368002B98
:10248000EFD1F5E7696A2846BDE870400022FFF702
:1024900009BF00BF4A7B836822B99A8842F00202D2
:1024A0009A80704701224068F0B400780D4C0E4DC0
:1024B0008240C4F814282F68A2620C4D62626263E5
:1024C000D1E900640201611E0E44BC1845EA011105
:1024D000BE506360A1609A88F0BC42F010029A80FE
:1024E000704700BF0000014054530100010000C0CC
:1024F0004A7B836822B99A8842F001029A80704729
:1025000001224068F0B440780D4C0E4D8240C4F872
:102510001C282F68A2620C4D62626263D1E90064DC
:102520000201611E0E44BC1845EA0111BB506660F1
:10253000A1609A88F0BC42F020029A80704700BFE8
:1025400000000140545301000100000C70B5164614
:1025500000220C4605463C311046FEF72FFE40B9DE
:10256000226B136910601A68236352B1A86910B90D
:1025700070BD012070BD0023AA690D203260AB61DF
:1025800070BDA86984F834200028F1D0F3E700BFBB
:1025900010B4D0E90131002493F903208C80A242C9
:1025A0000DDB012302F01F0419495209A340203218
:1025B00041F82230BFF34F8FBFF36F8F436893F919
:1025C0000220002A0DDB012302F01F0410495209EA
:1025D000A340203241F82230BFF34F8FBFF36F8FFB
:1025E000436893F90420002A0DDB012302F01F0445
:1025F00007495209A340203241F82230BFF34F8FE0
:10260000BFF36F8F43680020D86010BC704700BFD5
:1026100000E100E02DE9F84F144606464FF0000AAD
:102620008B461546DDF82880DFF86C911A46514636
:102630002046C8F800A037010DF064FA09EB070343
:102640009A68C4E9013205F830BBFDF703FEBBF11F
:10265000010F04F144036FD10022606847496562AD
:10266000407885F83420EA63A963AD62C5E90B556B
:102670002B616D6222464249FDF714FE002876D197
:102680000421404BC6EBC60676009A19985BA368F6
:102690005588988190881D859884D588108952899D
:1026A0009D8518849A879980198C1B8C364AC3F3B0
:1026B0008113D25C636884F82E2093F904204F4480
:1026C00001F00101002A84F82D10C8F80040FC60D8
:1026D0000EDB012153099B0003F1604302F01F024E
:1026E00003F5614301FA02F2C3F880211A606368BE
:1026F00093F90220002A11DA93F90330002B0ADB48
:10270000012203F01F0021495B09824041F8232088
:102710000020BDE8F88F0020BDE8F88F012302F00B
:102720001F001A495209834041F82230636893F927
:102730000330002BE4DAEEE715496268A1661078F1
:10274000256284F864A0A565C4E91755C4F86CA097
:102750002364656522460F49FDF7A4FD38B9BBF136
:10276000000F8DD004F1700504F1840374E7204656
:10277000FFF70EFF0F20BDE8F88F00BFF124000027
:102780007923000094530100A453010000E100E00C
:1027900095240000C923000038010420F8B54FF04B
:1027A000000C0127056AAC6A95F8346063732369ED
:1027B000C4E90012C4F808C02773AB622EB9022224
:1027C000AB6B85F83420E96A98470020F8BD00BF5C
:1027D000F8B54FF0000C0127456AAC6A95F83460F3
:1027E00063732369C4E90012C4F808C02773AB629D
:1027F0002EB90222AB6B85F83420E96A9847002095
:10280000F8BD00BFF8B501274FF0000C0646056A79
:10281000AC6A85F834702160216962602773637344
:10282000C4F808C0069CA962AB6BE96A98472246C7
:10283000316A3046BDE8F840FFF788BE0346002005
:10284000C3E90312704700BF10B484680A43A0892B
:10285000134320F00F000004000C1843A081002057
:1028600010BC70476FEA43436FEA534310B49DF8BE
:10287000044043EAC2238268A4B29BB211850020BF
:102880009384948510BC7047794BF0B5DD6883B0B4
:10289000AB681C8904F00E040C2C1DD8DFE804F092
:1028A000251C3C1C511C581C1C1C1C1C1E0002F02E
:1028B000040102F00203120759D4002940F08D8070
:1028C00053B140212B7D3BB9AB6904221943A96167
:1028D0002846696AFFF7E6FC03B0F0BD998E2846EA
:1028E000C9B2FFF79BFD03B0F0BDB3F84460B3F885
:1028F0004020B6B2370792B202D012F0010742D19F
:102900000021B3F8402022F007021204120CA3F8B1
:102910004020297503B0F0BD296ACA6A10680028F2
:10292000DAD0147B002CD7D0D2E90174065D601C8C
:10293000B8421E809060CFD328460122FFF7B2FC38
:10294000CAE795F82E102846FFF768FD03B0F0BDE2
:102950009A8A92B2D406AAD550071B8802F00203C5
:102960000CD5A021002BADD041F04001AAE70029F1
:1029700035D1002B14BF50211021A3E7002B14BF29
:10298000C02180219EE701A90020FEF751FB08B17C
:1029900000230193A96816F0010CB1F84820B1F8A2
:1029A00044301FFA82FE9AB20B461AD013090198DE
:1029B0008A8C43EA0E33C0001604B0FBF3F02ED429
:1029C000A862EB684BB395F82C2032B3AA6A0321B6
:1029D00028699847AB681A8892E72021C2E730211E
:1029E000C0E716F0020F14BF4FF400720022EC682B
:1029F000700748BF42F48072310748BF42F48062DA
:102A00004CB1696A91F83410022904D10521286972
:102A1000A047AB68DFE7EA61DDE70B46DBE73F2B6A
:102A20000BD85B02DB08A3F5006343F408439BB2B9
:102A30000F858B848C85A862C3E77F2B05D81B028A
:102A4000DB08A3F500636446EFE7FF2B05D8DB0145
:102A5000DB08A3F500630224E7E71A0A94B2E40056
:102A60009B01B3FBF4F397B20324A3F50063DCE707
:102A700038010420024B0122D868016AFFF712BC1A
:102A800038010420024B0022D868416AFFF70ABCD3
:102A90003801042038B5064C23680BB1002038BD3E
:102AA00005460A4619460DF02DF82560002038BD70
:102AB000301404200023024A18461360704700BFF8
:102AC000301404200F228300052830B402FA03F4E6
:102AD0001CD041F008010130994040B2EFF310835F
:102AE00072B60D4D2A6822EA04021143296083F36D
:102AF0001088002807DB012300F01F01074A400966
:102B00008B4042F82030002030BC7047490541F42A
:102B100080110420E2E700BF80C0044000E100E033
:102B2000052810B423D0421CD2B253B2002B0DDBC7
:102B3000012102F01F025B0901FA02F20D49203364
:102B400041F82320BFF34F8FBFF36F8FEFF3108354
:102B500072B60F21084C8000226801FA00F022EAC8
:102B60000000206083F31088002010BC7047102202
:102B70000023E3E700E100E080C0044030B4EFF35D
:102B8000108372B6054C246804EBC00544F830107D
:102B90006A6083F31088002030BC70473014042032
:102BA0000121054B054A116119680B681BB1002210
:102BB00048681146184770473014042080C004400C
:102BC0000221054A054B11611A6893681BB1D06850
:102BD000012100221847704780C0044030140420AF
:102BE0000421054A054B11611A6813691BB150692C
:102BF000022100221847704780C00440301404208E
:102C00000E4B0F495A6810B412F02002096809D01F
:102C100020228C6A1A6174B1C86A234600220521F9
:102C200010BC184708208C69186124B1C869234674
:102C3000032110BC184710BC704700BF80C004407F
:102C400030140420FEE700BF08B50A4A0A4B93423D
:102C50000CD2181D0332121A22F003020749024453
:102C600051F8040B43F8040B9342F9D100F042F8F9
:102C7000FDF7B6FA2C0B04200000042040A501004B
:102C8000174A136803F00303022B0ED0032B05D061
:102C9000144A154B1360154A13607047144B114AC0
:102CA0001B681360114A13607047136810B4D3682F
:102CB000D168D4680C48C4F30044A04003F01F035B
:102CC00003FB00F3C1F3C321B3FBF1F3D268054961
:102CD000C2F30022D340054A0B60136010BC70475A
:102CE00000C304403C14042080BA8C013414042036
:102CF0003814042044F659020A4BDA605A6942F04B
:102D000003025A61EFF3108372B64FF4E021064AD2
:102D1000064890605162BFF36F8FBFF34F8F83F30C
:102D20001088704700C0044000ED00E00000000083
:102D300000B59BB008F0ACFE03A801AB059306F00C
:102D400043FE03A902A806F0BFFE20B14FF0FF30FA
:102D50001BB05DF804FB029804F022FE0028F5D1B8
:102D6000029806F04DFB0028F0D1029806F048FBCF
:102D70000028F5D0EAE700BF2DE9F0470779804643
:102D80000C4691461E468FB3012F2AD1FF2B28D81F
:102D9000394602200CF0DEFA214682464FF4FE400E
:102DA00008F062FE60F07F008AF8000051460023C0
:102DB0000222D8F800008AF8014007F0AFFE55461D
:102DC000044640B93B46F2B24946D8F8000007F045
:102DD000E1FE044648B350460CF06EFB2046BDE8C9
:102DE000F0874FF0FF342046BDE8F0879F1C01219B
:102DF00038460CF0AFFA214605464FF4FF4008F084
:102E000033FE640028706C70BAB2D8F8000029460E
:102E100008F006FA044678B93EB12B189A78431C9C
:102E200009F80020D8B2B042F7D3002428460CF0AD
:102E300043FB2046BDE8F08728460CF03DFBD2E777
:102E4000002330B583B002AC24F8043D15460223BC
:102E50002246FFF791FF30B99DF804209DF8053018
:102E600043EA02232B8003B030BD00BF0023F0B53E
:102E7000047983B00646174601930D460CB3012C26
:102E800003D06FF0150003B0F0BD4FF4FE4008F022
:102E9000EBFD394660F07F034FF47F408DF804303E
:102EA0008DF8055008F0E0FD04228DF80600234659
:102EB00030680DEB02018DF8077007F02FFE03B0AC
:102EC000F0BD4FF4FF4008F0CFFD6D008DF8040019
:102ED000394645F001054FF47F408DF8055008F064
:102EE000C3FD04228DF806000DEB020130688DF859
:102EF000077008F095F903B0F0BD00BF2DE9F0416F
:102F000082B015460DF10602984606460F46FFF7B9
:102F100097FFD8B9BDF806200FFA88F422EA040218
:102F20004046ADF8062008F08FFDBDF8062005FAF2
:102F300000F3234013439BB2394630461A46ADF89E
:102F40000630FFF793FF02B0BDE8F0814FF0FF308D
:102F5000F9E700BF10B54FF4004382B001220F2102
:102F60000446FFF7CBFF08B102B010BD0DF1060219
:102F70000F212046FFF764FF0028F5D1BDF8063089
:102F8000C3F30123637102B010BD00BF0A460123E1
:102F90001021FFF7B3BF00BF0A464FF47063102142
:102FA000FFF7ACBF70B5437982B013F0FD0F054653
:102FB0000E460AD08469B4FBF6F40D21A2B228466D
:102FC000FFF754FF88B102B070BD0DF106020F216A
:102FD000FFF736FF0028F6D1BDF80630074C13F096
:102FE000020F08BF4FF40044E5E7C4F30642284649
:102FF0000E21FFF73BFF02B070BD00BF40420F0043
:10300000F0B583B00C46174610210DF106020646B6
:10301000FFF716FF68BBBDF80630C3F30323A342D6
:10302000C0F2A68004F108056D010DF106022946E3
:103030003046FFF705FFE0B93B78BDF80620D3B96D
:1030400022F4804292B2ADF8062029463046FFF7BE
:103050000DFF70B97A78BB78920093409BB26401FF
:103060001A4604F581713046ADF80630FFF7FEFED2
:1030700030B103B0F0BD42F48042ADF80620E4E781
:103080004FF4E043FA7804F203113046FFF736FFBD
:103090000028EED17A7939799201BB7942EA01228E
:1030A000F979134343EAC1031A4604F582713046A5
:1030B000ADF80630FFF7DAFE0028DAD17A7A3B7AEB
:1030C00004F20D1143EA02131A463046ADF80630F9
:1030D000FFF7CCFE0028CCD1BB7A04F5887103F051
:1030E00007031A463046ADF80630FFF7BFFE00284A
:1030F000BFD1FB7A04F589711B0103F4FE631A4604
:103100003046ADF80630FFF7B1FE0028B1D13A7B6A
:103110007B7B04F2051143EA02231A463046ADF8E0
:103120000630FFF7A3FE0028A3D1BA7BFB7B04F592
:10313000837143EA02231A463046ADF80630FFF7A2
:1031400095FE002895D13A7C12B901231A463B74AA
:103150007B7C13B901210B46797443EA02231A469A
:1031600004F207113046ADF80630FFF77FFE80E726
:103170006FF015007DE700BF10B50C460021224618
:10318000FFF75EFE18B92388C3F30A03238010BD3E
:103190002DE9F04F042B83B003FB02F57FD8ADB2CD
:1031A000B5F5007F7BD8002979D08A4606460121F3
:1031B0002846019391460CF0CDF80746002871D0BF
:1031C00015B34FF0000B01E05D451DD93379A5EB38
:1031D0000B04012B07EB0B024FF02F013046A4B27A
:1031E00002D1FF2C28BFFF242346FFF7C5FD5C4416
:1031F00080461FFA84FB0028E6D038460CF05CF9C4
:10320000404603B0BDE8F08FB9F1000F1ED0002298
:103210001346019901F1FF38B8F1030F12D8DFE826
:1032200008F01833021E591C981CC9B2FC5C795C6A
:10323000C0B2385C41EA042141EA004103334AF854
:103240002210DBB20132D2B24A45E5D34FF000087A
:10325000D3E7F95C01334AF82210DBB2F2E7591CDC
:10326000981CC0B2C9B2FD5C3C5C795CD81CC0B291
:10327000385C41EA052141EA046141EA0041043336
:103280004AF82210DBB2DDE7591CC9B2F85C795C60
:10329000023341EA00214AF82210DBB2D2E74FF0B4
:1032A000FF38ADE76FF00B08AAE700BF2DE9F04F3C
:1032B00085B0894603AA10210646FFF7C1FD0346E3
:1032C00018BB4FF00108BDF80C500746C5F30325A5
:1032D0000446824645440BE0BDF80C2008FA0AF388
:1032E00012F4804F1CBF1F43BFB2AC42A24610DA9B
:1032F0000AF10801490189B203AA3046FFF7A0FD8F
:103300000134034664B20028E6D0184605B0BDE893
:10331000F08F002401212846ADF80E400CF01AF879
:10332000804648B941E09DF80E2002F0070208F8F7
:1033300004204CB2AC4215DA610101F5887189B202
:103340000DF10E023046FFF77BFD611C034600289D
:10335000E9D0404601930CF0AFF8019B184605B048
:10336000BDE8F08F82468346044608E0BBF1000FBB
:1033700017D14FF0010BAC420AF1010AE9DA1FFA4A
:103380008AF109EB810118F8043001223046FFF779
:10339000FFFE47FA04F20346611C0028D9D1D20788
:1033A000E4D44CB24FF0000BE5E76FF00B03ACE751
:1033B000F0B5074683B00D4601201C210BF0CAFF73
:1033C000002854D02B7C6A6B044603718261294625
:1033D000B3B907F055FE064666B905F1140104F1CC
:1033E000080007F055FA064688B1237920685BB9D2
:1033F00007F0F0FE20460CF05FF8304603B0F0BD59
:1034000007F022FB0646E7E707F06AFBF2E705F163
:103410001C0104F10C0007F03BFA064618BB05F14D
:10342000240104F1100007F033FA0646C0B905F193
:103430002C0104F1140007F02BFA064668B9204667
:10344000FFF788FD064628B90121A06807F078FA41
:10345000064678B1606907F043FA206907F040FA40
:10346000E06807F03DFAA06807F03AFABDE76FF0B0
:103470000B06C2E70422B5212046FFF7F7FC0646FB
:103480000028E7D10246B5212046FFF7EFFC0646AB
:103490000028DFD10221A06807F07EFA0646002846
:1034A000D8D10DF1060208212046FFF7C9FC0646D7
:1034B0000028CFD19DF80630C22BCBD16A7C4FF4C7
:1034C000407362710F212046FFF718FD30B9637910
:1034D00013F0FD0F04D03C6000268EE70646B9E7E6
:1034E0000DF106020F212046FFF7AAFC0646002830
:1034F000B0D1BDF806300F2143F006031A4620462E
:10350000ADF80630FFF7B2FC06460028A2D1E2E78C
:1035100038B5054608460C460CF084FF00B938BDA6
:10352000024621462868BDE8384008F075B900BF5A
:1035300038B505460C46012014210BF00BFF28601E
:1035400008B3214608F0C6F9B8B904460F4B03F199
:10355000500203F8014F9342FBD12A680C490D4BEE
:1035600010680C7001220C491C7008F091F900B928
:1035700038BD2B68186808F04FFA28680BF09CFFDC
:103580004FF0FF3038BD4FF0FF3038BD4F150420ED
:1035900042140420941404204114042038B550B17E
:1035A0000446006808F038FA054610B920460BF0CA
:1035B00083FF284638BD4FF0FF35FAE710B41E4AA6
:1035C00013780D291ED8DFE801F0081D1D1D1D1DF3
:1035D0001D1D07150D1D1D0D2BBB0020174CE054A4
:1035E00010BC704701210020154A144C1170E054A2
:1035F00010BC704701210020124A104C1170E05499
:1036000010BC7047581CC0B20C4C5028E15408BF85
:103610004F23107018BF03464FF0000008BF13700F
:10362000E05410BC70470020013BDBB2034C137028
:10363000E05410BC704700BF431404205015042010
:103640004214042094140420012900D0704770B55E
:1036500005460C46054E3178FFF7B0FF224631464D
:103660002868BDE8704008F013B900BF4114042079
:103670002DE9F0470C780E4607469046A4B18946DE
:1036800000250BF003FF234620444278013502F069
:103690000302012A08BF2033EDB289F80030745DBF
:1036A00006EB0509002CECD1D7F80C90D9F80050A6
:1036B000C5B10024D7F808A0214623463F6904E09D
:1036C00059F824502346A10065B1FA5C5AF801105C
:1036D00030460CF0D5FE0134E4B20028F0D10FB131
:1036E000C8F80050BDE8F087F8B50F461149064606
:1036F000FFF70EFF104D04462B7853B124B9306804
:1037000001220E4908F088F800220D4B20461A705D
:10371000F8BD0C493046FFF7FBFE39463046FFF74F
:10372000F7FE04493046FFF7F3FE2B7801332B7088
:10373000E4E700BF8061010040140420E45301006D
:1037400043140420A853010000232DE9F041364C16
:1037500082B022780646012A019309D0DFF8E8807A
:1037600098F80030012B2DD0002002B0BDE8F08188
:103770002E4D2F48D9B26A5C01334254002AF9D148
:1037800001AA2A493046FFF773FF019B002B32D074
:1037900028493046FFF7BCFE202124480CF092FC5B
:1037A000019B411C706898470023304619462370DE
:1037B000FFF79AFF0028D8D1DFF88C8098F8003006
:1037C000012BD1D11C493046FFF7A2FE0023174D33
:1037D0001748DFB2C45D0133EC55002CF9D13046F7
:1037E0001249FFF795FE2046144B88F800401F70E1
:1037F00002B0BDE8F081052211490C480CF040FEF2
:1038000008B97060D0E72B78002BCDD0094930463D
:10381000FFF77EFE0B493046FFF77AFE054930463A
:10382000FFF776FEC0E700BF4214042050150420C5
:103830004414042080610100045401004314042056
:10384000E8530100F053010094140420C160704754
:1038500081607047016170474160704710B44FF05C
:10386000FF34C2EBC202920002F5807292B202F201
:10387000371300EB830300F59F6000EB82001A1FF3
:1038800042F8044F8242FBD118460A1D243112F837
:10389000044C2306ACB1036012F8034C43EA044322
:1038A0007CB1036012F8024C43EA04234CB103607C
:1038B00012F8014C043223431CB18A4240F8043B05
:1038C000E5D110BC704700BFC36913B1012283F872
:1038D0002E20704710B5044608490068FFF718FE0F
:1038E00094F8CA24064B206853F82210FFF710FE04
:1038F00020680449FFF70CFE002010BD70990100FC
:103900000C5501008061010010B5044608490068AB
:10391000FFF7FEFD94F8D114064A074B20680029F2
:1039200014BF11461946FFF7F3FD002010BD00BF7C
:103930000C97010004970100089701004FF0FF3138
:1039400008B500F6D84200F59B6343F8041F934284
:10395000FBD103490068FFF7DBFD002008BD00BF75
:10396000105B010030B50D4683B0044610220846B6
:1039700001A90DF095FE019BAB4214D084F8200004
:103980000A492068FFF7C4FD09492068FFF7C0FD18
:1039900029462068FFF7BCFD20680649FFF7B8FDFF
:1039A000002003B030BD012003B030BD549A0100A7
:1039B0005497010080610100F0B583B005460DF118
:1039C000060240681021FFF73BFA002846D1012685
:1039D000BDF80630044603F470631A0A3244074601
:1039E000ADF8063085F8D42029E0B5F9D620BDF829
:1039F0000610686811F4804F43EA020118BFA5F869
:103A0000D6104FEA441108BF22EA030301F588717A
:103A10000DF1060208BFA5F8D63089B2FFF710FAFB
:103A20000134EA1964B2C0B99DF80630274603F0A4
:103A3000070382F8DA3095F8D4309C420EDA07F1A9
:103A40000801490189B20DF106026868FFF7F8F92B
:103A500006FA07F31BB20028C7D0012003B0F0BD5F
:103A600070B5102286B004460E46084600210DF0BF
:103A700017FE0DF1020281B26068FFF7E1F918B19B
:103A80000125284606B070BD102201A90546BDF8E3
:103A900002000BF0F5FC18492068FFF739FD3146AC
:103AA0002068FFF735FD15492068FFF731FDBDF8A7
:103AB0000230B3F5805F0AD3206801A9FFF728FD23
:103AC00020680F49FFF724FD284606B070BD0D4958
:103AD0002068FFF71DFDBDF802302068FF2BECD8F1
:103AE0000849FFF715FDBDF8023020680F2BE4D818
:103AF0000449FFF70DFDDFE7649A0100EC56010071
:103B000080610100709A01002DE9F0410E460746E0
:103B1000202130460CF0D6FAB0B1002504462946E3
:103B200004F8015B102230460DF0BAFD29468046AC
:103B3000102220460DF0B4FD1FFA88F182B2786899
:103B4000FFF794F9054618B101252846BDE8F08134
:103B50000B493868FFF7DCFC31463868FFF7D8FCC2
:103B600008493868FFF7D4FC21463868FFF7D0FCD5
:103B700038680549FFF7CCFC2846BDE8F08100BF56
:103B8000749A010054970100806101002DE9F04111
:103B90000C780E460746ACB1884600250BF076FC43
:103BA000234620444278013502F00302022A08BF6E
:103BB000A4F120036DB288F80030745D06EB0508AF
:103BC000002CEBD100241449144D04E05CB255F8EC
:103BD00024100B7833B1052230460CF051FC631CE5
:103BE0000028F3D1042C02DD0120BDE8F08187F824
:103BF000CA440B493868FFF78BFC084B97F8CA2476
:103C0000386853F82210FFF783FC38680549FFF73E
:103C10007FFC0020BDE8F081809901000C55010077
:103C200088990100806101002DE9F04F0C68814600
:103C3000207885B02B280E46924600F0188101238B
:103C40002D22924D904203F1010100F0B2804BB25F
:103C5000EA5C002AF6D1042B00F0AF80631E3360CB
:103C600014F8010C01932B2847D001232D22874DF6
:103C7000904203F1010103D04BB2EA5C002AF7D174
:103C8000032B3ADD4FF0000BA51E5F468049DFF89D
:103C90001482356006E04FFA83FB58F82B105F461C
:103CA0000B786BB1022228460CF0EAFB0BF1010302
:103CB0000028F0D13A3759F827000AF061FF039045
:103CC000BBF1170F22DD14F8023C232B00F0D28049
:103CD000073C6B1E336015F8012C232A00F0B380DB
:103CE000A3421D46F5D1D9F800006A49FFF710FC40
:103CF0000124204605B0BDE8F08F03AA31464846AE
:103D0000FFF792FF002840F0B98035686B1E3360E2
:103D100015F8010C01932B2800F0878001232D2238
:103D20005A4C904203F1010103D04BB2E25C002AED
:103D3000F7D1032B79DD0024A5F1020B2746544966
:103D4000DFF86081C6F800B005E05CB258F82410D6
:103D500027460B7863B1022258460CF091FB631C96
:103D60000028F2D13A3759F827000AF009FF0290EB
:103D7000172C17DD15F8022C232A7DD0073D0BF1F7
:103D8000FF3333601BF8012C232A03D0AB429B4640
:103D9000F5D1A8E758460A2200210DF081FC0AF06F
:103DA000F3FE0290009B032B57D8DFE803F0332883
:103DB0001D0E042B00937FF451AF002400222046F7
:103DC000CAF8002005B0BDE8F08F039D0021284609
:103DD0000BF0C2F804460028EFD1294602980AF0F9
:103DE000DBFFCAF8000084E7039902980AF020FF7D
:103DF0000024CAF80000204605B0BDE8F08F039902
:103E000002980AF00BFE0024CAF80000204605B014
:103E1000BDE8F08F039902980AF002FE0024CAF868
:103E20000000204605B0BDE8F08F314602AA4846A2
:103E3000FFF7FAFE0028B5D0D9F800001649FFF7C1
:103E400067FB012455E728460A2200210DF028FCD3
:103E50000AF09AFE3568039058E70124D9F800006B
:103E60000E49FFF755FB204605B0BDE8F08F002353
:103E70000093F3E60198E7E701988CE7D9F8000092
:103E80000749FFF745FB012433E700BF2455010034
:103E90002C550100545501003C55010048550100C6
:103EA00030550100A854010030B5044683B009B173
:103EB0000B78D3B994F8D154012D3FD00023C4F826
:103EC000CC34A4F8D03423492068FFF721FB94F8C0
:103ED000D114214A214B2068002914BF11461946EC
:103EE000FFF716FB002003B030BD302BE2D0312BA2
:103EF00002D0012003B030BD00214068FFF746F832
:103F00000028F6D101460DF106026068FEF798FF21
:103F10000028EED1BDF80630014643F400431A46AE
:103F20006068ADF80630FEF7A1FF0028E1D14FF43C
:103F30008073C4F8CC04A4F8D034C4E72046FFF75B
:103F40003BFD0028D5D129466068FFF71FF80028FF
:103F5000B4D0CEE71C970100049701000897010038
:103F600010B5044686B0806E0AF0B4F902460B46DE
:103F700001A80B490CF036F820680A49FFF7C8FA87
:103F800020680949FFF7C4FA01A92068FFF7C0FAC1
:103F900020680649FFF7BCFA002006B010BD00BF3C
:103FA000949901009C990100A89901008061010089
:103FB00010B5044686B090F820200B4901A80CF0FB
:103FC00011F820680949FFF7A3FA20680849FFF7AC
:103FD0009FFA01A92068FFF79BFA20680549FFF7BF
:103FE00097FA002006B010BD509A0100549A0100C3
:103FF000A8990100806101002DE9F04FD0F8DC2480
:104000000446501C9FB017D0024E04F2DC4504F663
:10401000DC0703E0D8590100BD420DD093B2314610
:10402000120C04A80BF0DEFF04A92068FFF770FA59
:1040300055F8042F511CEFD14FF48B794FF0000845
:10404000DFF8D4B3DFF8C8A304F6F80555F81C3C34
:1040500003F07F43B3F17F4F4AD04246594611A83F
:104060000BF0C0FF11A92068FFF752FAA5F1200656
:1040700056F8043F20681A0E03F07F43B3F17F4FD8
:1040800037D08DF80B20006801220DF10B0107F0ED
:10409000C3FB33681A0C03F47F03B3F57F0F27D0FB
:1040A00023688DF80B20186801220DF10B0107F031
:1040B000B3FB33681A0A03F47F43B3F57F4F17D07D
:1040C00023688DF80B20186801220DF10B0107F011
:1040D000A3FB3368DAB2FF2A0AD022688DF80B30CE
:1040E00010680DF10B01012207F096FBB542BFD11C
:1040F00020685146FFF70CFA6B685A1C0ED0184620
:1041000003930AF0E7F84246CDE90001B54911A84A
:104110000BF068FF11A92068FFF7FAF9A868471C9F
:104120001BD00AF0D7F84246CDE90001AE4911A8EC
:104130000BF058FF11A92068FFF7EAF9EB68184661
:1041400003930AF0C7F802460B4611A8A7490BF0E3
:1041500049FF11A92068FFF7DBF92B695E1C0ED01F
:10416000184603930AF0B6F84246CDE90001A0498B
:1041700011A80BF037FF11A92068FFF7C9F96B6987
:10418000581C08D09B4911A842460BF02BFF11A9DF
:104190002068FFF7BDF96B6A591C77D01846039366
:1041A0000AF098F811AECDE9000142469249304636
:1041B0000BF018FF31462068FFF7AAF9AB6AA9F1A6
:1041C00005075A1CBFB221D0184603930AF082F8A3
:1041D0000B460246894930460BF004FF3146206801
:1041E000FFF796F9EB6A581C50D0184603930AF073
:1041F00071F802460B46304680490BF0F3FE31461B
:104200002068FFF785F9A9F10307BFB204EB870324
:10421000D3F8DC34591C39D0184603930AF05AF805
:1042200002460B46304675490BF0DCFE31462068ED
:10423000FFF76EF97B1C9BB204EB8303D3F8DC34ED
:104240005A1C23D0184603930AF044F802370B4651
:1042500002466A493046BFB20BF0C4FE04EB870742
:1042600031462068FFF754F9D7F8DC34581C0DD0DC
:10427000184603930AF02EF802460B463046604972
:104280000BF0B0FE31462068FFF742F95146206836
:10429000FFF73EF9EB6B591C75D0184603930AF0F3
:1042A00019F811AECDE900014246564930460BF0EF
:1042B00099FE31462068FFF72BF92B6C09F10107B5
:1042C0005A1CBFB221D0184603930AF003F80B46DC
:1042D00002464A4930460BF085FE31462068FFF71A
:1042E00017F96B6C5F1C4ED01846039309F0F2FF70
:1042F00002460B46304641490BF074FE31462068B9
:10430000FFF706F909F10307BFB204EB8703D3F8FF
:10431000DC34581C37D01846039309F0DBFF0B46FA
:104320000246364930460BF05DFE31462068FFF705
:10433000EFF87B1C9BB204EB8303D3F8DC34591CED
:1043400021D01846039309F0C5FF023702460B46F9
:1043500030462A49BFB20BF045FE04EB87073146D1
:104360002068FFF7D5F8D7F8DC04421C0BD009F021
:10437000B1FF02460B46304621490BF033FE314671
:104380002068FFF7C5F85146206808F10108FFF7DB
:10439000BFF809F11C09B8F1080F05F170051FFA03
:1043A00089F97FF453AED4F8D03C01330FD01649CD
:1043B0002068FFF7ADF8154BD4F8D02C206853F8DF
:1043C0002210FFF7A5F812492068FFF7A1F8D4F8EA
:1043D000D82C531C24D00F4904A80BF003FE04A9C9
:1043E00020681BE00C5A01002C5A01004C5A0100B5
:1043F000505A0100705A0100905A0100B05A010051
:10440000B85A0100C05A0100E05A01000C550100E1
:1044100080610100F45A0100F0590100FFF778F8BB
:1044200000201FB0BDE8F08F2DE9F04190F8CA449C
:10443000C0B01CB1002040B0BDE8F08106461A496A
:1044400000682546FFF764F8DFF86880174F11E031
:10445000D1F8EC30684639460BF0C4FD023464B242
:1044600069463068FFF754F8013596F8D4306DB2DC
:104470009D4210DAB6F8D63006EB84012B41DB07FB
:10448000E4B2D1F8E820E3D44146684601340BF0A9
:10449000A9FD64B2E4E730680549FFF739F8002068
:1044A00040B0BDE8F08100BF909A0100989A0100E9
:1044B000806101009C9A01002DE9F0430C4687B011
:1044C0008146694620460CF0F9FF009BA34238D094
:1044D0000AF050FA014607461C480AF05DFC0AF053
:1044E00093FD0446DFF8648020460AF049FB01464C
:1044F00040460AF051FC394606460AF055FD0134A3
:1045000005460028F0D1C9F86860304609F0E2FE9F
:1045100002460B4601A80E490BF064FD0D49D9F87F
:104520000000FEF7F5FF01A9D9F80000FEF7F0FF43
:10453000D9F800000849FEF7EBFF284607B0BDE8B0
:10454000F083012007B0BDE8F08300BF0000A04069
:1045500094990100AC9901008061010038B50C46C6
:10456000054608460AF0F2FE5CB123784BB170B103
:10457000194B984219D028681849BDE83840FEF711
:10458000C7BF28681649BDE83840FEF7C1BF4FF4E1
:10459000007305F2DC42D5F8E01CA86806F046F985
:1045A000044698B10124204638BD4FF4007305F24B
:1045B000DC42D5F8DC1CA86806F038F9044600286F
:1045C000F0D128680749FEF7A3FFECE72868064901
:1045D000FEF79EFFE7E700BF1A49E60070580100AA
:1045E0002C580100545801004058010030B50C46C9
:1045F000ADF6040D054608460AF0A8FEC4B12378BE
:10460000B3B14FF0FF31ADF104030DF2FC7243F88A
:10461000041F9342FBD1A0B11C4B984220D02868C4
:104620001B49FEF775FF044620460DF6040D30BD0C
:1046300028681849FEF76CFF044620460DF6040D65
:1046400030BD4FF400736A46D5F8E01CA86806F048
:10465000EDF80446A0B1012420460DF6040D30BD4E
:104660004FF400736A46D5F8DC1CA86806F0DEF843
:1046700004460028EFD128680749FEF749FFDCE728
:1046800028680649FEF744FFD7E700BF1A49E6004D
:10469000705801002C58010010580100FC5701000F
:1046A0002DE9F04F90F8D174BFB0012F0B9103D0DA
:1046B00000203FB0BDE8F08F0546002900F00282DF
:1046C0000C789CB1002637460AF0E0FE204443787F
:1046D000013603F00303022B0B9B08BF203CDC5583
:1046E0000B99F6B28C5D3746002CEDD1324B084663
:1046F00093F8078010A9A8F131085FFA88F88DF8BF
:1047000037800CF0DBFE0B9B064610980F46984254
:1047100000F0BB810BA90CF0D1FE109A0B9B9A42C2
:1047200041D00AF027F90190394630460AF022F9C3
:104730000F234FEA880803FA08F800245B4600902C
:10474000CB4627461FFA88FA994603E00834602CC6
:1047500000F085814FEA84081FFA88F808F5817116
:1047600089B20EAA6868FEF76BFBBDF838301AEA0A
:10477000030FEBD09DF8373013F0FD0316D0012B5B
:1047800004D108F5837B1FFA8BFBD94608F2071189
:104790000DF13A0289B26868FEF752FB80B1012040
:1047A0003FB0BDE8F08F054B0193BDE708F2051B54
:1047B0001FFA8BFBD946E9E7501504200000A943F6
:1047C00008F5897189B20DF13A026868BDF83A605E
:1047D000FEF736FB0028E2D108F20F1189B20DF185
:1047E0003A026868BDF83A70FEF72AFB0028D6D175
:1047F0002846BDF83A80FFF7DFF80028CFD10FAA8E
:1048000059466868FEF71CFB0028C8D1BDF83C304B
:10481000594623F07F0343F001031A466868ADF858
:104820003C30FEF723FB0028B9D10DF13E0249468A
:104830006868FEF705FB0028B1D1BDF83E30494657
:1048400023F4FE4343F480731A466868ADF83E30A3
:10485000FEF70CFB0028A2D195F8D420002A00F026
:104860003781B5F8D6C0039005F1D901069211F849
:10487000013F039A4CFA00FE1EF0010F02EB430EBB
:1048800009BF039A1FFA8EF39B189BB20393069BF2
:1048900001309842EBD101216868FEF777FB0028D0
:1048A0007FF47DAF0122CDF818A09246029B5FFAFB
:1048B00088F80493330AF6B203FB06F6C7F306172B
:1048C0004FEAC8230993BB18089373030A930DF1A9
:1048D00094080DF13A016868FEF74EFC00287FF459
:1048E0005EAFBDF83A30039A9342F2D3414668680E
:1048F000FEF7DCFC00287FF452AF08EB0403586895
:1049000054F80830984238BF18460AF039F906467C
:1049100008980AF035F9014630460AF03DFA064695
:1049200009980AF031F9014630460AF077F8064650
:104930000A980AF029F9014630460AF02DFAA249F0
:104940000AF076F96B6801460290009807930AF026
:104950000DFB002840F0F780019809F0BBFC0646EB
:1049600050460F460AF00CF909F0B4FC94A3D3E9C1
:10497000002309F007FD02460B4609F04DFB3246C5
:104980003B4609F08FFF002840F0DD800299009837
:104990000AF0E2FA002840F09D80BDF83E000AF0DF
:1049A000EFF809F097FC86A3D3E9002309F0EAFCAD
:1049B000CDE90401BDF83C000AF0E2F809F08AFCF8
:1049C0007FA3D3E9002309F0DDFC02460B46DDE9B5
:1049D000040109F021FB02460B463046394609F036
:1049E00039FF002876D10AF1010307980FAA59462A
:1049F0001FFA83FAFEF724FA00287FF4D0AEBDF840
:104A00003C300AF07F0223F07F0313431A465946D5
:104A10006868ADF83C30FEF729FA00287FF4BFAE95
:104A20000DF13E0249466868FEF70AFA00287FF455
:104A3000B6AEBDF83E304FEA0A2202F4FE4223F43D
:104A4000FE4313431A4649466868ADF83E30FEF708
:104A50000DFA029B049300283FF43BAF9FE65B49AD
:104A60002868FEF755FD9DF837302A683EA9313396
:104A700001F8C13D1068012206F0CEFE5FB928683A
:104A80005349FEF745FD384613E628685149FEF7BD
:104A90003FFD01200DE650492868FEF739FD0B99CE
:104AA0002868FEF735FD029809F014FC02460B4613
:104AB00025A84A490BF096FA25A92868FEF728FD93
:104AC0000020F6E500684349FEF722FD3846F0E590
:104AD0000392E0E6DDF818A000216868FEF756FAB8
:104AE000064600287FF45BAEBDF83C305A463C4990
:104AF00011A80BF077FA11A92868FEF709FDBDF897
:104B00003E304A46364911A80BF06CFA11A92868C4
:104B1000FEF7FEFC31460DF13A026868FEF790F9A7
:104B2000014600287FF43BAEBDF83A30686843F494
:104B300000431A46ADF83A30FEF798F900287FF4A2
:104B40002EAE012702E653460FAA5E1E079859466D
:104B5000DDF818A0B6B2FEF773F900287FF41FAE97
:104B6000BDF83C3006F07F0223F07F0313431A4662
:104B700059466868ADF83C30FEF778F900287FF4B4
:104B80000EAE0DF13E0249466868FEF759F900285D
:104B90007FF405AEBDF83E30320202F4FE4223F44B
:104BA000FE4313431A4649466868ADF83E30FEF7A7
:104BB0005DF900287FF4F3AD049B02938CE700BFFE
:104BC0008716D9CEF753F53F0000C8424C99010033
:104BD0006499010014990100549701005C99010047
:104BE0003099010010B50446006908B10AF064FC70
:104BF000606908B10AF060FCA06918B1BDE8104016
:104C00000AF05ABC10BD00BF2DE9F041C769002F62
:104C100043D00546386808B106F084FC0021686876
:104C2000FEF7B4F997F82230D7F81C80002B36D164
:104C3000B86918B180680AF03FFCB8690AF03CFC1A
:104C4000B8F1000F12D097F82040013C64B2002C5C
:104C50000CDB08EBC406F28838F834106868013CB5
:104C6000FEF704F92306A6F10806F4D53221686898
:104C7000FEF798F997F821106868FEF78DF9786AC1
:104C80000AF01AFCB86A0AF017FC40460AF014FC55
:104C900038460AF011FC0023EB61BDE8F0810022E8
:104CA0000621E86806F046F9B8690028C2D1C5E7D0
:104CB0002DE9F04F064697B008460AF047FB04215D
:104CC00000F1FF394FF400700AF044FB002800F0B7
:104CD000E6808046D6F8E43C5FFA89F909EB890959
:104CE000A3EBC92902464FF400734946B06805F0AA
:104CF000C1FDD8F800305A1C00F0C680DBB2694A0A
:104D0000402106A80BF028F906A93068FEF700FC40
:104D100098F80130644A402106A80BF01DF906A955
:104D20003068FEF7F5FB98F90270604A3B46402177
:104D300006A80BF011F906A93068FEF7E9FB98F810
:104D400003205B4B402153F8223006A8594A0BF050
:104D500003F906A93068FEF7DBFBD8F804301846E3
:104D60001D46039309F0B6FA534ACDE900014021EC
:104D700006A80BF0F1F806A93068FEF7C9FBD8F8D1
:104D8000083018461C46049309F0A4FA4B4ACDE9B2
:104D90000001402106A80BF0DFF806A93068FEF7F5
:104DA000B7FB384609F0F0FE0146284609F036FE0A
:104DB0000AF02AF980B209F0E7FE214609F0ECFF7B
:104DC0004FF07E5109F02CFE0AF01EF980B2002847
:104DD0004BD0002703240138DFF8FCB01FFA80FA1B
:104DE00058F82430651C1846059309F073FA5A46A2
:104DF000CDE90001402106A80BF0AEF8304ABBB265
:104E0000A2FB0312D20802EB8202A3EB42039BB285
:104E1000ADB203B330681FB12A49FEF779FB3068A1
:104E200006A9FEF775FB57451FD0B5F5007F07F1C2
:104E3000010701D22C46D3E76FF4FF73A9F500698F
:104E4000E51849464FF400734246B068ADB205F02C
:104E500011FD2C46C4E71C493068FEF759FB306849
:104E600006A9FEF755FB5745DFD118493068FEF714
:104E70004FFB17493068FEF74BFB40460AF01CFB1E
:104E8000002017B0BDE8F08F12493068FEF740FBF4
:104E900040460AF011FB002017B0BDE8F08F6FF01C
:104EA0000B00EEE71860010034600100546001005F
:104EB0005C0104207460010090600100B06001009A
:104EC000CDCCCCCC54970100F4600100806101008E
:104ED000D4600100E45F0100EC6001002DE9F047BF
:104EE000C569D0F8E46C95F83530D0B003EB830396
:104EF00081462868A6EBC326AF6A06F03DFBEB7936
:104F00002A7B95F90E4029791B06688943EA02231A
:104F1000220402F47F020B43D5F8108013430138BA
:104F2000109309F031FE414609F082FE8246204688
:104F300009F02AFE0146504609F072FDCDF848807E
:104F40006B89119063B300240323A046A446D9F8CB
:104F5000080050AA57F8241002EB8302A2F58072D1
:104F6000116001346A89A4B20133A2429BB20CEBF6
:104F7000060118D9402BECD110AA05F057FC08F116
:104F80004008034630BBB8F5007F08BF9846D9F803
:104F9000080006BFA6F50066C4464FEA880CD8E7AD
:104FA0003146D9F8080010AA402305F03FFC2868D4
:104FB00006F048FB2B680D4A9B68402168460AF0C2
:104FC000CBFF6946D9F80000FEF7A2FA2868002155
:104FD00006F066FB4846FFF717FED9F800000449C3
:104FE000FEF796FA50B0BDE8F08700BFAC9C010018
:104FF000D49C010010B5034904460068FEF788FA06
:1050000010B110BD0C610100A7492068FEF780FABD
:105010000028F6D1A5492068FEF77AFA0028F0D1D9
:10502000A3492068FEF774FA0028EAD1A149206854
:10503000FEF76EFA0028E4D19F492068FEF768FA6F
:105040000028DED19B492068FEF762FA0028D8D1FB
:105050009A492068FEF75CFA0028D2D19849206866
:10506000FEF756FA0028CCD196492068FEF750FA90
:105070000028C6D194492068FEF74AFA0028C0D11A
:1050800092492068FEF744FA0028BAD19049206876
:10509000FEF73EFA0028B4D18E492068FEF738FAB0
:1050A0000028AED18C492068FEF732FA0028A8D13A
:1050B0008A492068FEF72CFA0028A2D1814920688D
:1050C000FEF726FA00289CD17F492068FEF720FAD7
:1050D000002896D17D492068FEF71AFA002890D161
:1050E0007F492068FEF714FA00288AD179492068A0
:1050F000FEF70EFA002884D17A492068FEF708FAF4
:1051000000287FF47EAF78492068FEF701FA002876
:105110007FF477AF75492068FEF7FAF900287FF42D
:1051200070AF73492068FEF7F3F900287FF469AF88
:1051300070492068FEF7ECF900287FF462AF6E49F1
:105140002068FEF7E5F900287FF45BAF6B49206823
:10515000FEF7DEF900287FF454AF69492068FEF7B6
:10516000D7F900287FF44DAF66492068FEF7D0F9E3
:1051700000287FF446AF64492068FEF7C9F900288B
:105180007FF43FAF61492068FEF7C2F900287FF441
:1051900038AF5F492068FEF7BBF900287FF431AFD4
:1051A0005C492068FEF7B4F900287FF42AAF5A4919
:1051B0002068FEF7ADF900287FF423AF5749206837
:1051C000FEF7A6F900287FF41CAF55492068FEF7CA
:1051D0009FF900287FF415AF52492068FEF798F92F
:1051E00000287FF40EAF50492068FEF791F900289F
:1051F0007FF407AF4D492068FEF78AF900287FF455
:1052000000AF4B492068FEF783F900287FF4F9AE20
:1052100048492068FEF77CF900287FF4F2AE464941
:105220002068FEF775F900287FF4EBAE434920684B
:10523000FEF76EF900287FF4E4AE41492068FEF7DE
:1052400067F900287FF4DDAE3E492068FEF760F97B
:1052500000287FF4D6AE3C492068FEF759F90028B3
:105260007FF4CFAE39492068FEF752F900287FF469
:10527000C8AE37492068FEF74BF900287FF4C1AE6D
:1052800034492068FEF744F900287FF4BAAE324969
:105290002068FEF73DF900287FF4B3AE2F4920685F
:1052A000FEF736F95CE000BF246101006C6101008B
:1052B00084610100C06101000C62010048620100CC
:1052C00098620100F462010038630100806301000C
:1052D000C86301002464010080640100C06401000F
:1052E000306501008C650100E46501006466010021
:1052F000A46601003067010078670100D4670100EF
:105300003468010094680100D46801003469010028
:10531000A46901000C6A01008C6A0100F46A0100B2
:10532000586B0100E86B0100786C0100C06C010053
:10533000546D0100CC6D0100946E0100FC6E010003
:10534000886F0100F46F010064700100F8700100C3
:10535000787101000C7201008C720100CC720100A6
:1053600000287FF44EAE1F492068FEF7D1F80028D0
:105370007FF447AE1C492068FEF7CAF800287FF486
:1053800040AE1A492068FEF7C3F800287FF439AE12
:1053900017492068FEF7BCF800287FF432AE1549A3
:1053A0002068FEF7B5F800287FF42BAE124920687C
:1053B000FEF7AEF800287FF424AE10492068FEF70F
:1053C000A7F800287FF41DAE0A492068FEF7A0F870
:1053D00000287FF416AE0A492068FEF799F888B1D4
:1053E000012010BD2473010078730100F4730100E3
:1053F000707401001C750100B8750100FC75010096
:105400003C760100AF492068FEF782F80028E7D11A
:10541000AD492068FEF77CF80028E1D1AB4920684F
:10542000FEF776F80028DBD1A9492068FEF770F86E
:105430000028D5D1A7492068FEF76AF800287FF434
:10544000E0ADA5492068FEF763F800287FF4D9ADE8
:10545000A2492068FEF75CF800287FF4D2ADA0498D
:105460002068FEF755F800287FF4CBAD9D492068F1
:10547000FEF74EF800287FF4C4AD9B492068FEF784
:1054800047F800287FF4BDAD98492068FEF740F842
:1054900000287FF4B6AD96492068FEF739F8002859
:1054A0007FF4AFAD93492068FEF732F800287FF40F
:1054B000A8AD91492068FEF72BF800287FF4A1AD34
:1054C0008E492068FEF724F800287FF49AAD8C49B5
:1054D0002068FEF71DF800287FF493AD8949206805
:1054E000FEF716F800287FF48CAD87492068FEF798
:1054F0000FF800287FF485AD84492068FEF708F88E
:1055000000287FF47EAD82492068FEF701F800286C
:105510007FF477AD7F492068FDF7FAFF00287FF41C
:1055200070AD7D492068FDF7F3FF00287FF469AD79
:105530007A492068FDF7ECFF00287FF462AD7849D6
:105540002068FDF7E5FF00287FF45BAD7549206812
:10555000FDF7DEFF00287FF454AD73492068FDF7A6
:10556000D7FF00287FF44DAD70492068FDF7D0FFCC
:1055700000287FF446AD6E492068FDF7C9FF00287A
:105580007FF43FAD6B492068FDF7C2FF00287FF430
:1055900038AD69492068FDF7BBFF00287FF431ADC5
:1055A00066492068FDF7B4FF00287FF42AAD6449FE
:1055B0002068FDF7ADFF00287FF423AD6149206826
:1055C000FDF7A6FF00287FF41CAD5F492068FDF7BA
:1055D0009FFF00287FF415AD5C492068FDF798FF18
:1055E00000287FF40EAD5A492068FDF791FF00288E
:1055F0007FF407AD57492068FDF78AFF00287FF444
:1056000000AD55492068FDF783FF00287FF4F9AC11
:1056100052492068FDF77CFF00287FF4F2AC504926
:105620002068FDF775FF00287FF4EBAC4D4920683A
:10563000FDF76EFF00287FF4E4AC4B492068FDF7CE
:1056400067FF00287FF4DDAC48492068FDF760FF64
:1056500000287FF4D6AC46492068FDF759FF0028A2
:105660007FF4CFAC43492068FDF752FF00287FF458
:10567000C8AC41492068FDF74BFF00287FF4C1AC5E
:1056800039492068FDF744FF00287FF4BAAC374958
:105690002068FDF73DFF00287FF4B3AC3749206850
:1056A000FDF736FF00287FF4ACAC35492068FDF7E4
:1056B0002FFF00287FF4A5AC32492068FDF728FFB2
:1056C00062E000BF8C7601003C7701007C7701002E
:1056D000C87701003878010098780100E07801006F
:1056E0003C79010074790100B0790100E87901008A
:1056F000847A01003C7B0100A87B0100D47B01007F
:10570000387C0100807C0100D87C0100287D0100EC
:10571000A87D0100007E01004C7E0100B07E0100EA
:105720000C7F0100507F0100887F0100D47F0100C1
:1057300038800100B0800100188101008C810100D7
:10574000F081010084820100008301009083010048
:10575000E88301002C84010084840100FC840100A2
:105760006C850100F08501007C860100CC8601007B
:105770000C87010068870100BC870100EC870100ED
:1057800058880100C488010000287FF43AAC2D49F4
:105790002068FDF7BDFE00287FF433AC2A4920685D
:1057A000FDF7B6FE00287FF42CAC28492068FDF7F1
:1057B000AFFE00287FF425AC25492068FDF7A8FE40
:1057C00000287FF41EAC23492068FDF7A1FE0028C5
:1057D0007FF417AC20492068FDF79AFE00287FF47B
:1057E00010AC1E492068FDF793FE00287FF409AC39
:1057F0001B492068FDF78CFE00287FF402AC194994
:105800002068FDF785FE00287FF4FBAB1649206871
:10581000FDF77EFE00287FF4F4AB14492068FDF705
:1058200077FE00287FF4EDAB11492068FDF770FE8C
:1058300000287FF4E6AB20680E49BDE81040FDF774
:1058400067BE00BF1C890100A4890100108A010005
:105850007C860100CC860100A48A0100048B010033
:10586000748B0100D88B01007C8C0100B48C01008A
:105870000C8D0100908D010010B557490446006859
:10588000FDF746FE00B110BD54492068FDF740FE0B
:105890000028F8D152492068FDF73AFE0028F2D1DD
:1058A00050492068FDF734FE0028ECD14E492068AD
:1058B000FDF72EFE0028E6D14C492068FDF728FEB2
:1058C0000028E0D14A492068FDF722FE0028DAD1FD
:1058D00048492068FDF71CFE0028D4D146492068BD
:1058E000FDF716FE0028CED144492068FDF710FED2
:1058F0000028C8D142492068FDF70AFE0028C2D11D
:1059000040492068FDF704FE0028BCD13E492068CC
:10591000FDF7FEFD0028B6D13C492068FDF7F8FDF3
:105920000028B0D13A492068FDF7F2FD0028AAD13D
:1059300038492068FDF7ECFD0028A4D136492068DD
:10594000FDF7E6FD00289ED134492068FDF7E0FD13
:10595000002898D132492068FDF7DAFD002892D15D
:1059600026492068FDF7D4FD00288CD12449206801
:10597000FDF7CEFD002886D12A492068FDF7C8FD35
:10598000002880D128492068FDF7C2FD00287FF457
:105990007AAF26492068FDF7BBFD00287FF473AF7E
:1059A0001B492068FDF7B4FD00287FF46CAF204947
:1059B0002068FDF7ADFD00287FF465AF1D49206824
:1059C000FDF7A6FD00287FF45EAF20681A49BDE808
:1059D0001040FDF79DBD00BF048E0100348E010014
:1059E0008C8E0100F48E0100508F0100BC8F0100ED
:1059F000F48F01005C900100C4900100249101002B
:105A000080910100E491010050920100A0920100F8
:105A10000493010070930100DC93010000940100E5
:105A200064940100C8940100309501008495010040
:105A3000E095010030960100B096010001292DE9A2
:105A4000F041044601D00B786BB90022012384F8A1
:105A5000D024C4F8CC342046FDF7AEFF80B1012637
:105A60003046BDE8F081302BEFD00123084684F8A2
:105A7000D03409F06BFCC4F8CC040028EBD1EEE77D
:105A800001216068FDF782FA06460028E7D194F804
:105A9000CA5484F8D10420492068FDF739FD25BB9C
:105AA00035461E491E4FDFF87C8007E0013594F82B
:105AB000D4306DB29D42D3DA58F835102068FDF726
:105AC00027FD39462068FDF723FDB4F8D6302B4179
:105AD000DA07EBD508EBC50359682068FDF718FD18
:105AE00039462068FDF714FDE0E73546DFF83880D9
:105AF0000B4F02E00135082DB2D094F820302B4135
:105B0000DB07F7D558F825102068FDF701FD394669
:105B10002068FDF7FDFCEDE7A49A01002C5501007B
